{
  "contractName": "DMed",
  "abi": [
    {
      "anonymous": false,
      "inputs": [
        {
          "indexed": true,
          "internalType": "address",
          "name": "Admin_Address",
          "type": "address"
        }
      ],
      "name": "AdminAdded",
      "type": "event"
    },
    {
      "anonymous": false,
      "inputs": [
        {
          "indexed": true,
          "internalType": "address",
          "name": "Admin_Address",
          "type": "address"
        }
      ],
      "name": "AdminRemoved",
      "type": "event"
    },
    {
      "anonymous": false,
      "inputs": [
        {
          "indexed": true,
          "internalType": "address",
          "name": "_from",
          "type": "address"
        },
        {
          "indexed": true,
          "internalType": "address",
          "name": "_to",
          "type": "address"
        }
      ],
      "name": "OwnerChanged",
      "type": "event"
    },
    {
      "inputs": [
        {
          "internalType": "address",
          "name": "_admin",
          "type": "address"
        }
      ],
      "name": "addAdmin",
      "outputs": [
        {
          "internalType": "bool",
          "name": "",
          "type": "bool"
        }
      ],
      "stateMutability": "nonpayable",
      "type": "function"
    },
    {
      "inputs": [
        {
          "internalType": "address",
          "name": "_newOwner",
          "type": "address"
        }
      ],
      "name": "changeOwner",
      "outputs": [
        {
          "internalType": "bool",
          "name": "",
          "type": "bool"
        }
      ],
      "stateMutability": "nonpayable",
      "type": "function"
    },
    {
      "inputs": [],
      "name": "hospitalId",
      "outputs": [
        {
          "internalType": "uint256",
          "name": "",
          "type": "uint256"
        }
      ],
      "stateMutability": "view",
      "type": "function",
      "constant": true
    },
    {
      "inputs": [],
      "name": "organizationId",
      "outputs": [
        {
          "internalType": "uint256",
          "name": "",
          "type": "uint256"
        }
      ],
      "stateMutability": "view",
      "type": "function",
      "constant": true
    },
    {
      "inputs": [],
      "name": "recordId",
      "outputs": [
        {
          "internalType": "uint256",
          "name": "",
          "type": "uint256"
        }
      ],
      "stateMutability": "view",
      "type": "function",
      "constant": true
    },
    {
      "inputs": [
        {
          "internalType": "address",
          "name": "_admin",
          "type": "address"
        }
      ],
      "name": "removeAdmin",
      "outputs": [
        {
          "internalType": "bool",
          "name": "",
          "type": "bool"
        }
      ],
      "stateMutability": "nonpayable",
      "type": "function"
    },
    {
      "inputs": [],
      "name": "getOwner",
      "outputs": [
        {
          "internalType": "address",
          "name": "",
          "type": "address"
        }
      ],
      "stateMutability": "view",
      "type": "function",
      "constant": true
    },
    {
      "inputs": [
        {
          "internalType": "address",
          "name": "_admin",
          "type": "address"
        }
      ],
      "name": "isAdmin",
      "outputs": [
        {
          "internalType": "bool",
          "name": "",
          "type": "bool"
        }
      ],
      "stateMutability": "view",
      "type": "function",
      "constant": true
    },
    {
      "inputs": [
        {
          "internalType": "string",
          "name": "name",
          "type": "string"
        },
        {
          "internalType": "string",
          "name": "physicalAddress",
          "type": "string"
        },
        {
          "internalType": "address",
          "name": "walletAddress",
          "type": "address"
        },
        {
          "internalType": "string",
          "name": "license",
          "type": "string"
        }
      ],
      "name": "addHospital",
      "outputs": [],
      "stateMutability": "nonpayable",
      "type": "function"
    },
    {
      "inputs": [
        {
          "internalType": "uint256",
          "name": "_id",
          "type": "uint256"
        }
      ],
      "name": "getHospitalById",
      "outputs": [
        {
          "components": [
            {
              "internalType": "uint256",
              "name": "id",
              "type": "uint256"
            },
            {
              "internalType": "string",
              "name": "name",
              "type": "string"
            },
            {
              "internalType": "string",
              "name": "physicalAddress",
              "type": "string"
            },
            {
              "internalType": "address",
              "name": "walletAddress",
              "type": "address"
            },
            {
              "internalType": "string",
              "name": "License",
              "type": "string"
            }
          ],
          "internalType": "struct DMed.Hospital",
          "name": "",
          "type": "tuple"
        }
      ],
      "stateMutability": "view",
      "type": "function",
      "constant": true
    },
    {
      "inputs": [
        {
          "internalType": "address",
          "name": "_address",
          "type": "address"
        }
      ],
      "name": "getHospitalByAddress",
      "outputs": [
        {
          "components": [
            {
              "internalType": "uint256",
              "name": "id",
              "type": "uint256"
            },
            {
              "internalType": "string",
              "name": "name",
              "type": "string"
            },
            {
              "internalType": "string",
              "name": "physicalAddress",
              "type": "string"
            },
            {
              "internalType": "address",
              "name": "walletAddress",
              "type": "address"
            },
            {
              "internalType": "string",
              "name": "License",
              "type": "string"
            }
          ],
          "internalType": "struct DMed.Hospital",
          "name": "",
          "type": "tuple"
        }
      ],
      "stateMutability": "view",
      "type": "function",
      "constant": true
    },
    {
      "inputs": [
        {
          "internalType": "uint256",
          "name": "_hospitalId",
          "type": "uint256"
        },
        {
          "internalType": "uint256",
          "name": "_patientId",
          "type": "uint256"
        },
        {
          "internalType": "string",
          "name": "_condition",
          "type": "string"
        },
        {
          "internalType": "string",
          "name": "_description",
          "type": "string"
        },
        {
          "internalType": "string",
          "name": "_allergies",
          "type": "string"
        },
        {
          "internalType": "string",
          "name": "_document",
          "type": "string"
        }
      ],
      "name": "addNewRecord",
      "outputs": [],
      "stateMutability": "nonpayable",
      "type": "function"
    },
    {
      "inputs": [
        {
          "internalType": "uint256",
          "name": "_id",
          "type": "uint256"
        },
        {
          "internalType": "string",
          "name": "_name",
          "type": "string"
        },
        {
          "internalType": "string",
          "name": "_gender",
          "type": "string"
        },
        {
          "internalType": "string",
          "name": "_bloodGroup",
          "type": "string"
        },
        {
          "internalType": "string",
          "name": "_dob",
          "type": "string"
        },
        {
          "internalType": "uint256",
          "name": "_phoneNumber",
          "type": "uint256"
        },
        {
          "internalType": "string",
          "name": "_physicalAddress",
          "type": "string"
        },
        {
          "internalType": "string",
          "name": "_profilePicture",
          "type": "string"
        },
        {
          "internalType": "address",
          "name": "_walletAddress",
          "type": "address"
        }
      ],
      "name": "addNewPatient",
      "outputs": [],
      "stateMutability": "nonpayable",
      "type": "function"
    },
    {
      "inputs": [
        {
          "internalType": "string",
          "name": "_name",
          "type": "string"
        },
        {
          "internalType": "address",
          "name": "_walletAddress",
          "type": "address"
        },
        {
          "internalType": "string",
          "name": "_license",
          "type": "string"
        }
      ],
      "name": "addOrganization",
      "outputs": [],
      "stateMutability": "nonpayable",
      "type": "function"
    },
    {
      "inputs": [
        {
          "internalType": "uint256",
          "name": "_id",
          "type": "uint256"
        }
      ],
      "name": "getOrganizationById",
      "outputs": [
        {
          "components": [
            {
              "internalType": "uint256",
              "name": "id",
              "type": "uint256"
            },
            {
              "internalType": "string",
              "name": "name",
              "type": "string"
            },
            {
              "internalType": "address",
              "name": "walletAddress",
              "type": "address"
            },
            {
              "internalType": "string",
              "name": "License",
              "type": "string"
            }
          ],
          "internalType": "struct DMed.Organization",
          "name": "",
          "type": "tuple"
        }
      ],
      "stateMutability": "view",
      "type": "function",
      "constant": true
    },
    {
      "inputs": [
        {
          "internalType": "address",
          "name": "_addr",
          "type": "address"
        }
      ],
      "name": "getOrganizationByAddress",
      "outputs": [
        {
          "components": [
            {
              "internalType": "uint256",
              "name": "id",
              "type": "uint256"
            },
            {
              "internalType": "string",
              "name": "name",
              "type": "string"
            },
            {
              "internalType": "address",
              "name": "walletAddress",
              "type": "address"
            },
            {
              "internalType": "string",
              "name": "License",
              "type": "string"
            }
          ],
          "internalType": "struct DMed.Organization",
          "name": "",
          "type": "tuple"
        }
      ],
      "stateMutability": "view",
      "type": "function",
      "constant": true
    },
    {
      "inputs": [
        {
          "internalType": "address",
          "name": "addr",
          "type": "address"
        }
      ],
      "name": "addAuthByAddress",
      "outputs": [],
      "stateMutability": "nonpayable",
      "type": "function"
    },
    {
      "inputs": [
        {
          "internalType": "uint256",
          "name": "_id",
          "type": "uint256"
        }
      ],
      "name": "addAuthById",
      "outputs": [],
      "stateMutability": "nonpayable",
      "type": "function"
    },
    {
      "inputs": [
        {
          "internalType": "address",
          "name": "addr",
          "type": "address"
        }
      ],
      "name": "revokeAuthByAddress",
      "outputs": [],
      "stateMutability": "nonpayable",
      "type": "function"
    },
    {
      "inputs": [
        {
          "internalType": "uint256",
          "name": "_id",
          "type": "uint256"
        }
      ],
      "name": "revokeAuthById",
      "outputs": [],
      "stateMutability": "nonpayable",
      "type": "function"
    },
    {
      "inputs": [
        {
          "internalType": "uint256",
          "name": "_id",
          "type": "uint256"
        }
      ],
      "name": "getPatientDetails",
      "outputs": [
        {
          "internalType": "uint256",
          "name": "",
          "type": "uint256"
        },
        {
          "internalType": "string",
          "name": "",
          "type": "string"
        },
        {
          "internalType": "string",
          "name": "",
          "type": "string"
        },
        {
          "internalType": "string",
          "name": "",
          "type": "string"
        },
        {
          "internalType": "string",
          "name": "",
          "type": "string"
        },
        {
          "internalType": "uint256",
          "name": "",
          "type": "uint256"
        },
        {
          "internalType": "string",
          "name": "",
          "type": "string"
        },
        {
          "internalType": "string",
          "name": "",
          "type": "string"
        },
        {
          "internalType": "address",
          "name": "",
          "type": "address"
        }
      ],
      "stateMutability": "view",
      "type": "function",
      "constant": true
    },
    {
      "inputs": [
        {
          "internalType": "uint256",
          "name": "_id",
          "type": "uint256"
        }
      ],
      "name": "getPatientRecords",
      "outputs": [
        {
          "internalType": "uint256[]",
          "name": "",
          "type": "uint256[]"
        },
        {
          "internalType": "string[]",
          "name": "",
          "type": "string[]"
        },
        {
          "internalType": "string[]",
          "name": "",
          "type": "string[]"
        },
        {
          "internalType": "string[]",
          "name": "",
          "type": "string[]"
        },
        {
          "internalType": "string[]",
          "name": "",
          "type": "string[]"
        }
      ],
      "stateMutability": "view",
      "type": "function",
      "constant": true
    }
  ],
  "bytecode": "0x6080604052600160025560016003556001600455348015601e57600080fd5b5060008054600160a060020a0319163390811782558152600160208190526040909120805460ff191690911790556138308061005b6000396000f3fe608060405234801561001057600080fd5b506004361061015f576000357c01000000000000000000000000000000000000000000000000000000009004806383ce80e1116100d55780639e861ae0116100995780639e861ae0146102ff578063a6f9dae114610312578063baf1da2d14610325578063c471dc3a14610338578063dce7e84314610341578063f7dfe22b1461036557600080fd5b806383ce80e114610294578063893d20e8146102a757806397d4a3de146102c25780639b90d2d5146102d55780639d2d428e146102e857600080fd5b806344125aa61161012757806344125aa61461021557806351928b2c14610235578063635c545514610248578063704802751461025b5780637516455c1461026e57806375d884141461028157600080fd5b80631785f53c1461016457806324d7806c1461018c57806324e459c6146101b85780632832163f146101cd578063300c601c146101ed575b600080fd5b610177610172366004612f49565b61036e565b60405190151581526020015b60405180910390f35b61017761019a366004612f49565b600160a060020a031660009081526001602052604090205460ff1690565b6101cb6101c6366004613011565b6104ec565b005b6101e06101db366004612f49565b6106bf565b6040516101839190613116565b6102006101fb366004613175565b6108e2565b6040516101839998979695949392919061318e565b610228610223366004613175565b610eab565b6040516101839190613233565b610228610243366004612f49565b6110e3565b6101e0610256366004613175565b61136f565b610177610269366004612f49565b61156d565b6101cb61027c366004613175565b61165b565b6101cb61028f366004612f49565b61191e565b6101cb6102a2366004612f49565b611a20565b600054604051600160a060020a039091168152602001610183565b6101cb6102d03660046132a8565b611aa7565b6101cb6102e33660046133c3565b611d02565b6102f160025481565b604051908152602001610183565b6101cb61030d366004613437565b611ea4565b610177610320366004612f49565b612089565b6101cb610333366004613175565b6121a6565b6102f160045481565b61035461034f366004613175565b6123ed565b604051610183959493929190613527565b6102f160035481565b60008054600160a060020a031633146103a55760405160e560020a62461bcd02815260040161039c906135be565b60405180910390fd5b600160a060020a03821660009081526001602081905260409091205460ff161515146104165760405160e560020a62461bcd02815260206004820152601960248201527f596f7520617265206e6f742061646d696e20616c726561647900000000000000604482015260640161039c565b600054600160a060020a039081169083160361049d5760405160e560020a62461bcd02815260206004820152602360248201527f4f776e65722063616e6e6f742062652072656d6f76656420617320616e20616460448201527f6d696e0000000000000000000000000000000000000000000000000000000000606482015260840161039c565b600160a060020a038216600081815260016020526040808220805460ff19169055517fa3b62bc36326052d97ea62d63c3d60308ed4c3ea8ac079dd8499f1e9c4f80c0f9190a25060015b919050565b336000908152600660205260409020548015801590610518575060008181526005602052604090205415155b6105675760405160e560020a62461bcd02815260206004820152601a60248201527f4f6e6c7920686f73706974616c732061726520616c6c6f776564000000000000604482015260640161039c565b60008681526008602052604081205490036105c75760405160e560020a62461bcd02815260206004820152601a60248201527f5468652070617469656e7420646f6573206e6f74206578697374000000000000604482015260640161039c565b6040805160e0810182526003805480835260208084018c81528486018c8152606086018c8152608087018c905260a087018b905260c087018a9052600094855260079093529590922084518155915160018301559351600282015592519192839290918201906106379082613683565b506080820151600482019061064c9082613683565b5060a082015160058201906106619082613683565b5060c082015160068201906106769082613683565b505050600087815260086020908152604082206003805460069092018054600181018255908552928420909201558054916106b083613749565b91905055505050505050505050565b6106f3604051806080016040528060008152602001606081526020016000600160a060020a03168152602001606081525090565b600160a060020a0382166000908152600b6020526040902054801580159061072857506000818152600a602052604090205415155b6107775760405160e560020a62461bcd02815260206004820152601b60248201527f4e6f2073756368206f7267616e697a6174696f6e206578697374730000000000604482015260640161039c565b600a6000828152602001908152602001600020604051806080016040529081600082015481526020016001820180546107af906135f5565b80601f01602080910402602001604051908101604052809291908181526020018280546107db906135f5565b80156108285780601f106107fd57610100808354040283529160200191610828565b820191906000526020600020905b81548152906001019060200180831161080b57829003601f168201915b50505091835250506002820154600160a060020a03166020820152600382018054604090920191610858906135f5565b80601f0160208091040260200160405190810160405280929190818152602001828054610884906135f5565b80156108d15780601f106108a6576101008083540402835291602001916108d1565b820191906000526020600020905b8154815290600101906020018083116108b457829003601f168201915b505050505081525050915050919050565b33600081815260066020908152604080832054858452600c835281842094845293909152812054909160609182918291829186918391829184918b9160ff1615156001148061094857508015801590610948575060008181526005602052604090205415155b80610976575081158015906109765750600082815260086020526040902060090154600160a060020a031633145b6109c55760405160e560020a62461bcd02815260206004820152601960248201527f4f6e6c7920617574686f72697365642061646472657373656400000000000000604482015260640161039c565b8b158015906109e1575060008c81526008602052604090205415155b610a305760405160e560020a62461bcd02815260206004820152601560248201527f4e6f20737563682070617469656e7420666f756e640000000000000000000000604482015260640161039c565b6000600860008e81526020019081526020016000206040518061014001604052908160008201548152602001600182018054610a6b906135f5565b80601f0160208091040260200160405190810160405280929190818152602001828054610a97906135f5565b8015610ae45780601f10610ab957610100808354040283529160200191610ae4565b820191906000526020600020905b815481529060010190602001808311610ac757829003601f168201915b50505050508152602001600282018054610afd906135f5565b80601f0160208091040260200160405190810160405280929190818152602001828054610b29906135f5565b8015610b765780601f10610b4b57610100808354040283529160200191610b76565b820191906000526020600020905b815481529060010190602001808311610b5957829003601f168201915b50505050508152602001600382018054610b8f906135f5565b80601f0160208091040260200160405190810160405280929190818152602001828054610bbb906135f5565b8015610c085780601f10610bdd57610100808354040283529160200191610c08565b820191906000526020600020905b815481529060010190602001808311610beb57829003601f168201915b50505050508152602001600482018054610c21906135f5565b80601f0160208091040260200160405190810160405280929190818152602001828054610c4d906135f5565b8015610c9a5780601f10610c6f57610100808354040283529160200191610c9a565b820191906000526020600020905b815481529060010190602001808311610c7d57829003601f168201915b505050505081526020016005820154815260200160068201805480602002602001604051908101604052809291908181526020018280548015610cfc57602002820191906000526020600020905b815481526020019060010190808311610ce8575b50505050508152602001600782018054610d15906135f5565b80601f0160208091040260200160405190810160405280929190818152602001828054610d41906135f5565b8015610d8e5780601f10610d6357610100808354040283529160200191610d8e565b820191906000526020600020905b815481529060010190602001808311610d7157829003601f168201915b50505050508152602001600882018054610da7906135f5565b80601f0160208091040260200160405190810160405280929190818152602001828054610dd3906135f5565b8015610e205780601f10610df557610100808354040283529160200191610e20565b820191906000526020600020905b815481529060010190602001808311610e0357829003601f168201915b505050505081526020016009820160009054906101000a9004600160a060020a0316600160a060020a0316600160a060020a0316815250509050806000015181602001518260400151836060015184608001518560a001518660e001518761010001518861012001519b509b509b509b509b509b509b509b509b505050509193959799909294969850565b610eb3612e9a565b6000828152600560205260408120549003610ee35760405160e560020a62461bcd02815260040161039c90613773565b6000600560008481526020019081526020016000206040518060a001604052908160008201548152602001600182018054610f1d906135f5565b80601f0160208091040260200160405190810160405280929190818152602001828054610f49906135f5565b8015610f965780601f10610f6b57610100808354040283529160200191610f96565b820191906000526020600020905b815481529060010190602001808311610f7957829003601f168201915b50505050508152602001600282018054610faf906135f5565b80601f0160208091040260200160405190810160405280929190818152602001828054610fdb906135f5565b80156110285780601f10610ffd57610100808354040283529160200191611028565b820191906000526020600020905b81548152906001019060200180831161100b57829003601f168201915b50505091835250506003820154600160a060020a03166020820152600482018054604090920191611058906135f5565b80601f0160208091040260200160405190810160405280929190818152602001828054611084906135f5565b80156110d15780601f106110a6576101008083540402835291602001916110d1565b820191906000526020600020905b8154815290600101906020018083116110b457829003601f168201915b50505091909252509195945050505050565b6110eb612e9a565b600160a060020a03821660009081526006602052604081205490036111255760405160e560020a62461bcd02815260040161039c90613773565b600160a060020a038216600090815260066020908152604080832054808452600590925282205490910361116e5760405160e560020a62461bcd02815260040161039c90613773565b6000600560008381526020019081526020016000206040518060a0016040529081600082015481526020016001820180546111a8906135f5565b80601f01602080910402602001604051908101604052809291908181526020018280546111d4906135f5565b80156112215780601f106111f657610100808354040283529160200191611221565b820191906000526020600020905b81548152906001019060200180831161120457829003601f168201915b5050505050815260200160028201805461123a906135f5565b80601f0160208091040260200160405190810160405280929190818152602001828054611266906135f5565b80156112b35780601f10611288576101008083540402835291602001916112b3565b820191906000526020600020905b81548152906001019060200180831161129657829003601f168201915b50505091835250506003820154600160a060020a031660208201526004820180546040909201916112e3906135f5565b80601f016020809104026020016040519081016040528092919081815260200182805461130f906135f5565b801561135c5780601f106113315761010080835404028352916020019161135c565b820191906000526020600020905b81548152906001019060200180831161133f57829003601f168201915b5050509190925250919695505050505050565b6113a3604051806080016040528060008152602001606081526020016000600160a060020a03168152602001606081525090565b6000828152600a602052604081205490036114035760405160e560020a62461bcd02815260206004820152601b60248201527f4e6f2073756368206f7267616e697a6174696f6e206578697374730000000000604482015260640161039c565b600a60008381526020019081526020016000206040518060800160405290816000820154815260200160018201805461143b906135f5565b80601f0160208091040260200160405190810160405280929190818152602001828054611467906135f5565b80156114b45780601f10611489576101008083540402835291602001916114b4565b820191906000526020600020905b81548152906001019060200180831161149757829003601f168201915b50505091835250506002820154600160a060020a031660208201526003820180546040909201916114e4906135f5565b80601f0160208091040260200160405190810160405280929190818152602001828054611510906135f5565b801561155d5780601f106115325761010080835404028352916020019161155d565b820191906000526020600020905b81548152906001019060200180831161154057829003601f168201915b5050505050815250509050919050565b60008054600160a060020a0316331461159b5760405160e560020a62461bcd02815260040161039c906135be565b600160a060020a03821660009081526001602052604090205460ff16156116075760405160e560020a62461bcd02815260206004820152601860248201527f596f752061726520616c726561647920616e2061646d696e0000000000000000604482015260640161039c565b600160a060020a0382166000818152600160208190526040808320805460ff1916909217909155517f44d6d25963f097ad14f29f06854a01f575648a1ef82f30e562ccd3889717e3399190a2506001919050565b336000908152600960205260409020548015801590611687575060008181526008602052604090205415155b6116a65760405160e560020a62461bcd02815260040161039c906137aa565b6000600a6000848152602001908152602001600020604051806080016040529081600082015481526020016001820180546116e0906135f5565b80601f016020809104026020016040519081016040528092919081815260200182805461170c906135f5565b80156117595780601f1061172e57610100808354040283529160200191611759565b820191906000526020600020905b81548152906001019060200180831161173c57829003601f168201915b50505091835250506002820154600160a060020a03166020820152600382018054604090920191611789906135f5565b80601f01602080910402602001604051908101604052809291908181526020018280546117b5906135f5565b80156118025780601f106117d757610100808354040283529160200191611802565b820191906000526020600020905b8154815290600101906020018083116117e557829003601f168201915b505050505081525050905080600001516000036118645760405160e560020a62461bcd02815260206004820152601a60248201527f4e6f2073756368206f7267616e697a6174696f6e20666f756e64000000000000604482015260640161039c565b33600090815260096020908152604080832054808452600c835281842085830151600160a060020a031685529092529091205460ff1615156001146118ee5760405160e560020a62461bcd02815260206004820152601660248201527f416c7265616479206e6f7420617574686f726973656400000000000000000000604482015260640161039c565b6000908152600c6020908152604080832093810151600160a060020a0316835292905220805460ff191690555050565b33600090815260096020526040902054801580159061194a575060008181526008602052604090205415155b6119695760405160e560020a62461bcd02815260040161039c906137aa565b33600090815260096020908152604080832054808452600c8352818420600160a060020a03871685529092529091205460ff1615156001146119f05760405160e560020a62461bcd02815260206004820152601660248201527f416c7265616479206e6f7420617574686f726973656400000000000000000000604482015260640161039c565b6000908152600c60209081526040808320600160a060020a03909516835293905291909120805460ff1916905550565b336000908152600960205260409020548015801590611a4c575060008181526008602052604090205415155b611a6b5760405160e560020a62461bcd02815260040161039c906137aa565b50336000908152600960209081526040808320548352600c8252808320600160a060020a0394909416835292905220805460ff19166001179055565b336000908152600660205260409020548015801590611ad3575060008181526005602052604090205415155b611b225760405160e560020a62461bcd02815260206004820152601a60248201527f4f6e6c7920686f73706974616c732061726520616c6c6f776564000000000000604482015260640161039c565b60008a815260086020526040902054158015611b545750600160a060020a038216600090815260096020526040902054155b611ba35760405160e560020a62461bcd02815260206004820152601660248201527f50617469656e7420616c72656164792065786973747300000000000000000000604482015260640161039c565b600160a060020a03821660008181526009602090815260408083208e90558051610140810182528e81528083018e81528183018e905260608281018e9052608083018d905260a083018c905260c0830181905260e083018b905261010083018a90526101208301969096528f8552600890935292208251815590516001820190611c2d9082613683565b5060408201516002820190611c429082613683565b5060608201516003820190611c579082613683565b5060808201516004820190611c6c9082613683565b5060a0820151600582015560c08201518051611c92916006840191602090910190612ed2565b5060e08201516007820190611ca79082613683565b506101008201516008820190611cbd9082613683565b5061012091909101516009909101805473ffffffffffffffffffffffffffffffffffffffff1916600160a060020a039092169190911790555050505050505050505050565b3360009081526001602081905260409091205460ff16151514611d6a5760405160e560020a62461bcd02815260206004820152600a60248201527f4f6e6c792041646d696e00000000000000000000000000000000000000000000604482015260640161039c565b600160a060020a0382166000908152600b602052604090205415611dd35760405160e560020a62461bcd02815260206004820152601b60248201527f4f7267616e697a6174696f6e20616c7265616479206578697374730000000000604482015260640161039c565b604080516080810182526004548082526020808301878152600160a060020a03871684860152606084018690526000928352600a9091529290208151815591519091906001820190611e259082613683565b50604082015160028201805473ffffffffffffffffffffffffffffffffffffffff1916600160a060020a0390921691909117905560608201516003820190611e6d9082613683565b505060048054600160a060020a0385166000908152600b60205260408120829055909250611e9a83613749565b9190505550505050565b3360009081526001602081905260409091205460ff16151514611f0c5760405160e560020a62461bcd02815260206004820152600a60248201527f4f6e6c792041646d696e00000000000000000000000000000000000000000000604482015260640161039c565b600160a060020a03821660009081526006602052604090205415611f9b5760405160e560020a62461bcd02815260206004820152602160248201527f416c7265616479207265676973746572656420617320616e20686f737069746160448201527f6c00000000000000000000000000000000000000000000000000000000000000606482015260840161039c565b6040805160a0810182526002548082526020808301888152838501889052600160a060020a038716606085015260808401869052600092835260059091529290208151815591519091906001820190611ff49082613683565b50604082015160028201906120099082613683565b50606082015160038201805473ffffffffffffffffffffffffffffffffffffffff1916600160a060020a03909216919091179055608082015160048201906120519082613683565b505060028054600160a060020a038516600090815260066020526040812082905590925061207e83613749565b919050555050505050565b60008054600160a060020a031633146120b75760405160e560020a62461bcd02815260040161039c906135be565b600054600160a060020a03908116908316036121185760405160e560020a62461bcd02815260206004820152601960248201527f596f752061726520746865206f776e657220616c726561647900000000000000604482015260640161039c565b60008054600160a060020a039081168252600160208190526040808420805460ff19908116909155845473ffffffffffffffffffffffffffffffffffffffff19168785169081178655855281852080549091169092179091558254905191169133917fb532073b38c83145e3e5135377a08bf9aab55bc0fd7c1179cd4fb995d2a5159c9190a3506001919050565b3360009081526009602052604090205480158015906121d2575060008181526008602052604090205415155b6121f15760405160e560020a62461bcd02815260040161039c906137aa565b6000600a60008481526020019081526020016000206040518060800160405290816000820154815260200160018201805461222b906135f5565b80601f0160208091040260200160405190810160405280929190818152602001828054612257906135f5565b80156122a45780601f10612279576101008083540402835291602001916122a4565b820191906000526020600020905b81548152906001019060200180831161228757829003601f168201915b50505091835250506002820154600160a060020a031660208201526003820180546040909201916122d4906135f5565b80601f0160208091040260200160405190810160405280929190818152602001828054612300906135f5565b801561234d5780601f106123225761010080835404028352916020019161234d565b820191906000526020600020905b81548152906001019060200180831161233057829003601f168201915b505050505081525050905080600001516000036123af5760405160e560020a62461bcd02815260206004820152601a60248201527f4e6f2073756368206f7267616e697a6174696f6e20666f756e64000000000000604482015260640161039c565b336000908152600960209081526040808320548352600c825280832093810151600160a060020a0316835292905220805460ff191660011790555050565b33600081815260066020908152604080832054858452600c8352818420948452939091529020546060918291829182918291879160ff1615156001148061244b5750801580159061244b575060008181526005602052604090205415155b80612479575081158015906124795750600082815260086020526040902060090154600160a060020a031633145b6124c85760405160e560020a62461bcd02815260206004820152601960248201527f4f6e6c7920617574686f72697365642061646472657373656400000000000000604482015260640161039c565b6000600860008a81526020019081526020016000206040518061014001604052908160008201548152602001600182018054612503906135f5565b80601f016020809104026020016040519081016040528092919081815260200182805461252f906135f5565b801561257c5780601f106125515761010080835404028352916020019161257c565b820191906000526020600020905b81548152906001019060200180831161255f57829003601f168201915b50505050508152602001600282018054612595906135f5565b80601f01602080910402602001604051908101604052809291908181526020018280546125c1906135f5565b801561260e5780601f106125e35761010080835404028352916020019161260e565b820191906000526020600020905b8154815290600101906020018083116125f157829003601f168201915b50505050508152602001600382018054612627906135f5565b80601f0160208091040260200160405190810160405280929190818152602001828054612653906135f5565b80156126a05780601f10612675576101008083540402835291602001916126a0565b820191906000526020600020905b81548152906001019060200180831161268357829003601f168201915b505050505081526020016004820180546126b9906135f5565b80601f01602080910402602001604051908101604052809291908181526020018280546126e5906135f5565b80156127325780601f1061270757610100808354040283529160200191612732565b820191906000526020600020905b81548152906001019060200180831161271557829003601f168201915b50505050508152602001600582015481526020016006820180548060200260200160405190810160405280929190818152602001828054801561279457602002820191906000526020600020905b815481526020019060010190808311612780575b505050505081526020016007820180546127ad906135f5565b80601f01602080910402602001604051908101604052809291908181526020018280546127d9906135f5565b80156128265780601f106127fb57610100808354040283529160200191612826565b820191906000526020600020905b81548152906001019060200180831161280957829003601f168201915b5050505050815260200160088201805461283f906135f5565b80601f016020809104026020016040519081016040528092919081815260200182805461286b906135f5565b80156128b85780601f1061288d576101008083540402835291602001916128b8565b820191906000526020600020905b81548152906001019060200180831161289b57829003601f168201915b505050918352505060099190910154600160a060020a0316602090910152905088158015906128e75750805115155b6129365760405160e560020a62461bcd02815260206004820152601560248201527f4e6f20737563682070617469656e7420666f756e640000000000000000000000604482015260640161039c565b60008160c00151511161298e5760405160e560020a62461bcd02815260206004820152600f60248201527f4e6f207265636f726420666f756e640000000000000000000000000000000000604482015260640161039c565b60c081015180519060008267ffffffffffffffff8111156129b1576129b1612f6b565b6040519080825280602002602001820160405280156129da578160200160208202803683370190505b50905060008367ffffffffffffffff8111156129f8576129f8612f6b565b604051908082528060200260200182016040528015612a2b57816020015b6060815260200190600190039081612a165790505b50905060008467ffffffffffffffff811115612a4957612a49612f6b565b604051908082528060200260200182016040528015612a7c57816020015b6060815260200190600190039081612a675790505b50905060008567ffffffffffffffff811115612a9a57612a9a612f6b565b604051908082528060200260200182016040528015612acd57816020015b6060815260200190600190039081612ab85790505b50905060008667ffffffffffffffff811115612aeb57612aeb612f6b565b604051908082528060200260200182016040528015612b1e57816020015b6060815260200190600190039081612b095790505b50905060005b8651811015612e8257600060076000898481518110612b4557612b456137e1565b602002602001015181526020019081526020016000206040518060e0016040529081600082015481526020016001820154815260200160028201548152602001600382018054612b94906135f5565b80601f0160208091040260200160405190810160405280929190818152602001828054612bc0906135f5565b8015612c0d5780601f10612be257610100808354040283529160200191612c0d565b820191906000526020600020905b815481529060010190602001808311612bf057829003601f168201915b50505050508152602001600482018054612c26906135f5565b80601f0160208091040260200160405190810160405280929190818152602001828054612c52906135f5565b8015612c9f5780601f10612c7457610100808354040283529160200191612c9f565b820191906000526020600020905b815481529060010190602001808311612c8257829003601f168201915b50505050508152602001600582018054612cb8906135f5565b80601f0160208091040260200160405190810160405280929190818152602001828054612ce4906135f5565b8015612d315780601f10612d0657610100808354040283529160200191612d31565b820191906000526020600020905b815481529060010190602001808311612d1457829003601f168201915b50505050508152602001600682018054612d4a906135f5565b80601f0160208091040260200160405190810160405280929190818152602001828054612d76906135f5565b8015612dc35780601f10612d9857610100808354040283529160200191612dc3565b820191906000526020600020905b815481529060010190602001808311612da657829003601f168201915b50505050508152505090508060200151878381518110612de557612de56137e1565b6020026020010181815250508060600151868381518110612e0857612e086137e1565b60200260200101819052508060800151858381518110612e2a57612e2a6137e1565b60200260200101819052508060a00151848381518110612e4c57612e4c6137e1565b60200260200101819052508060c00151838381518110612e6e57612e6e6137e1565b602090810291909101015250600101612b24565b50939f929e50909c509a509098509650505050505050565b6040518060a001604052806000815260200160608152602001606081526020016000600160a060020a03168152602001606081525090565b828054828255906000526020600020908101928215612f0d579160200282015b82811115612f0d578251825591602001919060010190612ef2565b50612f19929150612f1d565b5090565b5b80821115612f195760008155600101612f1e565b8035600160a060020a03811681146104e757600080fd5b600060208284031215612f5b57600080fd5b612f6482612f32565b9392505050565b60e060020a634e487b7102600052604160045260246000fd5b600082601f830112612f9557600080fd5b813567ffffffffffffffff80821115612fb057612fb0612f6b565b604051601f8301601f19908116603f01168101908282118183101715612fd857612fd8612f6b565b81604052838152866020858801011115612ff157600080fd5b836020870160208301376000602085830101528094505050505092915050565b60008060008060008060c0878903121561302a57600080fd5b8635955060208701359450604087013567ffffffffffffffff8082111561305057600080fd5b61305c8a838b01612f84565b9550606089013591508082111561307257600080fd5b61307e8a838b01612f84565b9450608089013591508082111561309457600080fd5b6130a08a838b01612f84565b935060a08901359150808211156130b657600080fd5b506130c389828a01612f84565b9150509295509295509295565b6000815180845260005b818110156130f6576020818501810151868301820152016130da565b506000602082860101526020601f19601f83011685010191505092915050565b6020815281516020820152600060208301516080604084015261313c60a08401826130d0565b9050600160a060020a0360408501511660608401526060840151601f1984830301608085015261316c82826130d0565b95945050505050565b60006020828403121561318757600080fd5b5035919050565b60006101208b83528060208401526131a88184018c6130d0565b905082810360408401526131bc818b6130d0565b905082810360608401526131d0818a6130d0565b905082810360808401526131e481896130d0565b90508660a084015282810360c08401526131fe81876130d0565b905082810360e084015261321281866130d0565b915050600160a060020a0383166101008301529a9950505050505050505050565b60208152815160208201526000602083015160a0604084015261325960c08401826130d0565b90506040840151601f198085840301606086015261327783836130d0565b9250600160a060020a03606087015116608086015260808601519150808584030160a08601525061316c82826130d0565b60008060008060008060008060006101208a8c0312156132c757600080fd5b8935985060208a013567ffffffffffffffff808211156132e657600080fd5b6132f28d838e01612f84565b995060408c013591508082111561330857600080fd5b6133148d838e01612f84565b985060608c013591508082111561332a57600080fd5b6133368d838e01612f84565b975060808c013591508082111561334c57600080fd5b6133588d838e01612f84565b965060a08c0135955060c08c013591508082111561337557600080fd5b6133818d838e01612f84565b945060e08c013591508082111561339757600080fd5b506133a48c828d01612f84565b9250506133b46101008b01612f32565b90509295985092959850929598565b6000806000606084860312156133d857600080fd5b833567ffffffffffffffff808211156133f057600080fd5b6133fc87838801612f84565b945061340a60208701612f32565b9350604086013591508082111561342057600080fd5b5061342d86828701612f84565b9150509250925092565b6000806000806080858703121561344d57600080fd5b843567ffffffffffffffff8082111561346557600080fd5b61347188838901612f84565b9550602087013591508082111561348757600080fd5b61349388838901612f84565b94506134a160408801612f32565b935060608701359150808211156134b757600080fd5b506134c487828801612f84565b91505092959194509250565b6000828251808552602080860195508081830284010181860160005b8481101561351a57601f198684030189526135088383516130d0565b988401989250908301906001016134ec565b5090979650505050505050565b60a0808252865190820181905260009060209060c0840190828a01845b8281101561356057815184529284019290840190600101613544565b505050838103602085015261357581896134d0565b915050828103604084015261358a81876134d0565b9050828103606084015261359e81866134d0565b905082810360808401526135b281856134d0565b98975050505050505050565b6020808252600a908201527f4f6e6c79206f776e657200000000000000000000000000000000000000000000604082015260600190565b60028104600182168061360957607f821691505b60208210810361362c5760e060020a634e487b7102600052602260045260246000fd5b50919050565b601f82111561367e5760008160005260206000206020601f8601048101602086101561365b5750805b6020601f860104820191505b8181101561367a57828155600101613667565b5050505b505050565b815167ffffffffffffffff81111561369d5761369d612f6b565b6136b1816136ab84546135f5565b84613632565b602080601f8311600181146136ea57600084156136ce5750858301515b60028086026008870290910a600019041982161786555061367a565b600085815260208120601f198616915b82811015613719578886015182559484019460019091019084016136fa565b508582101561373957878501516008601f88160260020a60001904191681555b5050505050600202600101905550565b60006001820161376c5760e060020a634e487b7102600052601160045260246000fd5b5060010190565b60208082526017908201527f4e6f207375636820686f73706974616c20657869737473000000000000000000604082015260600190565b60208082526017908201527f4f6e6c792070617469656e7420697320616c6c6f776564000000000000000000604082015260600190565b60e060020a634e487b7102600052603260045260246000fdfea26469706673582212207590f12d9a57d7d51a30e00d9c48ae9f83d317c69e498cedeeb72d9478f629e164736f6c63430008190033",
  "immutableReferences": {},
  "source": "// SPDX-License-Identifier: MIT\npragma solidity >=0.4.22 <0.9.0;\npragma experimental ABIEncoderV2;\n\nimport {Ownable} from \"./Ownable.sol\";\n\ncontract DMed is Ownable {\n    struct Hospital {\n        uint256 id;\n        string name;\n        string physicalAddress;\n        address walletAddress;\n        string License;\n    }\n\n    struct Record {\n        uint256 id;\n        uint256 hospitalId;\n        uint256 patientId;\n        string condition;\n        string description;\n        string allergies;\n        string Document;\n    }\n\n    struct Patient {\n        uint256 id;\n        string name;\n        string gender;\n        string bloodGroup;\n        string DOB;\n        uint256 phoneNumber;\n        uint256[] records;\n        string physicalAddress;\n        string profilePicture;\n        address walletAddress;\n    }\n\n    struct Organization {\n        uint256 id;\n        string name;\n        address walletAddress;\n        string License;\n    }\n\n    uint256 public hospitalId = 1;\n    uint256 public recordId = 1;\n    uint256 public organizationId = 1;\n\n    // to map hospitalId to Hospital Struct\n    mapping(uint256 => Hospital) private hospitals;\n\n    // mapping to check if an address is already a registered hospital or not\n    mapping(address => uint256) private hospitalToId;\n\n    // to map medical record id to Record struct\n    mapping(uint256 => Record) private records;\n\n    // to map paitentId to Patient Struct\n    mapping(uint256 => Patient) private patients;\n\n    // mapping from patient address to patient id\n    mapping(address => uint256) private patientToId;\n\n    // to map government authorities Authorities Struct\n    mapping(uint256 => Organization) private organizations;\n\n    // mapping from organization address to id\n    mapping(address => uint256) private organizationToId;\n\n    // nested mapping of (patientId) => ((address of authority)) => (isAuthorised ?))\n    mapping(uint256 => mapping(address => bool)) private authorised;\n\n    /*\n        - function to get the address of the owner\n        - no restriction in the access\n        - returns the address of the current owner\n    */\n    function getOwner() public view returns (address) {\n        return owner;\n    }\n\n    /*\n        - function to check if the given address is an admin or not\n        - no restriction in the access\n        - returns true or false.\n    */\n    function isAdmin(address _admin) public view returns (bool) {\n        return admin[_admin];\n    }\n\n    /* \n        - function to add new hospitals. \n        - Callable by only admins. \n        - receive name of hospital, address of hosptial, wallet of hospital, and IPFS Hash of document\n        - emits an event for adding new hospital\n    */\n    function addHospital(\n        string memory name,\n        string memory physicalAddress,\n        address walletAddress,\n        string memory license\n    ) public onlyAdmin {\n        require(\n            hospitalToId[walletAddress] == 0,\n            \"Already registered as an hospital\"\n        );\n        hospitals[hospitalId] = Hospital(\n            hospitalId,\n            name,\n            physicalAddress,\n            walletAddress,\n            license\n        );\n        hospitalToId[walletAddress] = hospitalId;\n        hospitalId++;\n    }\n\n    /*\n        - function to get hopital with the given id\n        - check if any hosptial exists with the given Id\n        - If the hosptial exists then we return it \n    */\n    function getHospitalById(uint256 _id)\n        public\n        view\n        returns (Hospital memory)\n    {\n        require(hospitals[_id].id != 0, \"No such hospital exists\");\n        Hospital memory hosp = hospitals[_id];\n        return hosp;\n    }\n\n    /*\n        - function to get hopital having the specified address\n        - firstly checks if the given address exists in the mapping from hospitalAddress to Id\n        - now we check if any hosptial exists with the returned Id\n        - If the hosptial exists then we return it \n    */\n    function getHospitalByAddress(address _address)\n        public\n        view\n        returns (Hospital memory)\n    {\n        require(hospitalToId[_address] != 0, \"No such hospital exists\");\n        uint256 _id = hospitalToId[_address];\n        require(hospitals[_id].id != 0, \"No such hospital exists\");\n        Hospital memory hosp = hospitals[_id];\n        return hosp;\n    }\n\n    /*\n        - function to add new records of an existing patient.\n        - if the patient already exists then we make a new Record variable\n        - map the created record to its recordId\n        - add the recordId to the list of records of the patient\n        - increment the recordId\n    */\n    function addNewRecord(\n        uint256 _hospitalId,\n        uint256 _patientId,\n        string memory _condition,\n        string memory _description,\n        string memory _allergies,\n        string memory _document\n    ) public onlyHospital {\n        require(patients[_patientId].id != 0, \"The patient does not exist\");\n        Record memory rec = Record(\n            recordId,\n            _hospitalId,\n            _patientId,\n            _condition,\n            _description,\n            _allergies,\n            _document\n        );\n        records[recordId] = rec;\n        patients[_patientId].records.push(recordId);\n        recordId++;\n    }\n\n    // /*\n    //     - this is a developer function\n    //     - not meant to be present on the production contract\n    //     - returns the record mapped to its id\n    // */\n    // function getRecordById(uint _id)public view returns(Record memory) {\n    //     require(records[_id].id != 0,\"Record does not exist\");\n    //     return records[_id];\n    // }\n\n    /*\n        - function to add new patients\n        - we check if the given patient id aleady exists\n        - if does not exist then we make a new Patient varible\n        - add the constructed varible to patients mapping\n        - add the patientId to the mapping of patient address to patient Id\n    */\n    function addNewPatient(\n        uint256 _id,\n        string memory _name,\n        string memory _gender,\n        string memory _bloodGroup,\n        string memory _dob,\n        uint256 _phoneNumber,\n        string memory _physicalAddress,\n        string memory _profilePicture,\n        address _walletAddress\n    ) public onlyHospital {\n        require(patients[_id].id == 0 && patientToId[_walletAddress] == 0 , \"Patient already exists\");\n        uint256[] memory _records;\n        patientToId[_walletAddress] = _id;\n        patients[_id] = Patient(\n            _id,\n            _name,\n            _gender,\n            _bloodGroup,\n            _dob,\n            _phoneNumber,\n            _records,\n            _physicalAddress,\n            _profilePicture,\n            _walletAddress\n        );\n    }\n\n    /* \n        - function to add new organizations. \n        - Callable by only admins. \n        - receive name of organiation, _walletAddress of organization, and IPFS Hash of document\n    */\n    function addOrganization(\n        string memory _name,\n        address _walletAddress,\n        string memory _license\n    ) public onlyAdmin {\n        require(\n            organizationToId[_walletAddress] == 0,\n            \"Organization already exists\"\n        );\n        organizations[organizationId] = Organization(\n            organizationId,\n            _name,\n            _walletAddress,\n            _license\n        );\n        organizationToId[_walletAddress] = organizationId;\n\n        organizationId++;\n    }\n\n    /*\n        - function to get organization with the given id\n        - check if any organization exists with the given Id\n        - If the organization exists then we return it \n    */\n    function getOrganizationById(uint256 _id)\n        public\n        view\n        returns (Organization memory)\n    {\n        require(organizations[_id].id != 0, \"No such organization exists\");\n        return organizations[_id];\n    }\n\n    /*\n        - function to get organization having the specified address\n        - firstly checks if the given address exists in the mapping from organizationAddress to Id\n        - now we check if any organization exists with the returned Id\n        - If the organization exists then we return it \n    */\n    function getOrganizationByAddress(address _addr)\n        public\n        view\n        returns (Organization memory)\n    {\n        uint256 _id = organizationToId[_addr];\n        require(\n            _id != 0 && organizations[_id].id != 0,\n            \"No such organization exists\"\n        );\n        return organizations[_id];\n    }\n\n    /*\n        - function to give access authority to addresses\n        - message sender must be the patient\n        - if all condition pass add id of patient and address to authorised mapping\n    */\n    function addAuthByAddress(address addr) public onlyPatient {\n        uint256 _id = patientToId[msg.sender];\n        authorised[_id][addr] = true;\n    }\n\n    /*\n        - function to give access authority to an organization\n        - message sender must be the patient\n        - firstly check if organization with the given id exist or not\n        - if all conditions pass add id of patient and address of the organization to the mapping\n    */\n    function addAuthById(uint256 _id) public onlyPatient {\n        Organization memory org = organizations[_id];\n        require(org.id != 0, \"No such organization found\");\n        uint256 patientId = patientToId[msg.sender];\n        authorised[patientId][org.walletAddress] = true;\n    }\n\n    /*\n        - function to remove access rights from some address\n        - message sender must be the patient\n        - check if the given address has the access authorities\n        - if all conditions check, remove the mapping of id and address\n    */\n    function revokeAuthByAddress(address addr) public onlyPatient {\n        uint256 _id = patientToId[msg.sender];\n        require(authorised[_id][addr] == true, \"Already not authorised\");\n\n        authorised[_id][addr] = false;\n    }\n\n    /*\n        - function to remove access authority from an organization\n        - message sender must be the patient\n        - check if the given organization exists or not\n        - check if the given organization has the access authorities\n        - if all conditions check, remove the mapping of id and address\n    */\n    function revokeAuthById(uint256 _id) public onlyPatient {\n        Organization memory org = organizations[_id];\n        require(org.id != 0, \"No such organization found\");\n        uint256 patientId = patientToId[msg.sender];\n\n        require(\n            authorised[patientId][org.walletAddress] == true,\n            \"Already not authorised\"\n        );\n        authorised[patientId][org.walletAddress] = false;\n    }\n\n    /*\n        - function to get the details of the patient \n        - this function is callable by either a hospital or an authorised address\n        - we check if the given id is a valid patient or not\n        - if all checks pass, we return all the data of the patient except list of its records\n    */\n    function getPatientDetails(uint256 _id)\n        public\n        view\n        onlyAuthorised(_id)\n        returns (\n            uint256,\n            string memory,\n            string memory,\n            string memory,\n            string memory,\n            uint256,\n            string memory,\n            string memory,\n            address\n        )\n    {\n        require(_id != 0 && patients[_id].id != 0, \"No such patient found\");\n        Patient memory pat = patients[_id];\n        return (\n            pat.id,\n            pat.name,\n            pat.gender,\n            pat.bloodGroup,\n            pat.DOB,\n            pat.phoneNumber,\n            pat.physicalAddress,\n            pat.profilePicture,\n            pat.walletAddress\n        );\n    }\n\n    /*\n        - function to get all the records of the given patient\n        - this function is callable by only either a registered hospital or an authorised address or the patient itself\n        - it checks if the patient with the given id exists or not\n        - it checks if the number of records of the given patient is greater than 0 or not\n        - we create an array for each of the attributes\n        - we return all the attributes except patientId and records own id\n        - loop through all the records in the recordId array of the patient and fill the array as specified\n        - return all the filled arrays\n    */\n    function getPatientRecords(uint256 _id)\n        public\n        view\n        onlyAuthorised(_id)\n        returns (\n            uint256[] memory,\n            string[] memory,\n            string[] memory,\n            string[] memory,\n            string[] memory\n        )\n    {\n        Patient memory patient = patients[_id];\n        require(_id != 0 && patient.id != 0, \"No such patient found\");\n        require(patient.records.length > 0, \"No record found\");\n\n        uint256 len = patient.records.length;\n        uint256[] memory rec = patient.records;\n\n        uint256[] memory hosId = new uint256[](len);\n        string[] memory cond = new string[](len);\n        string[] memory desc = new string[](len);\n        string[] memory aller = new string[](len);\n        string[] memory docs = new string[](len);\n\n        for (uint256 i = 0; i < rec.length; i++) {\n            Record memory curr = records[rec[i]];\n            hosId[i] = curr.hospitalId;\n            cond[i] = curr.condition;\n            desc[i] = curr.description;\n            aller[i] = curr.allergies;\n            docs[i] = curr.Document;\n        }\n\n        return (hosId, cond, desc, aller, docs);\n    }\n\n    modifier onlyAuthorised(uint256 _id) {\n        uint256 hosId = hospitalToId[msg.sender];\n        require(\n            (authorised[_id][msg.sender] == true) ||\n                (hosId != 0 && hospitals[hosId].id != 0) ||\n                (_id != 0 && patients[_id].walletAddress == msg.sender),\n            \"Only authorised addressed\"\n        );\n        _;\n    }\n\n    modifier onlyPatient() {\n        uint256 _id = patientToId[msg.sender];\n        require(_id != 0 && patients[_id].id != 0, \"Only patient is allowed\");\n        _;\n    }\n\n    modifier onlyHospital() {\n        uint256 _id = hospitalToId[msg.sender];\n        require(\n            _id != 0 && hospitals[_id].id != 0,\n            \"Only hospitals are allowed\"\n        );\n        _;\n    }\n}",
  "sourcePath": "E:\\7sem proj\\DecentraMed\\contracts\\DMed.sol",
  "compiler": {
    "name": "solc",
    "version": "0.8.25+commit.b61c2a91.Emscripten.clang"
  },
  "schemaVersion": "3.4.16",
  "updatedAt": "2024-03-27T03:42:24.636Z",
  "networkType": "ethereum",
  "devdoc": {
    "kind": "dev",
    "methods": {},
    "version": 1
  },
  "userdoc": {
    "kind": "user",
    "methods": {},
    "version": 1
  }
}