{
  "contractName": "Ownable",
  "abi": [
    {
      "inputs": [],
      "stateMutability": "nonpayable",
      "type": "constructor"
    },
    {
      "anonymous": false,
      "inputs": [
        {
          "indexed": true,
          "internalType": "address",
          "name": "Admin_Address",
          "type": "address"
        }
      ],
      "name": "AdminAdded",
      "type": "event"
    },
    {
      "anonymous": false,
      "inputs": [
        {
          "indexed": true,
          "internalType": "address",
          "name": "Admin_Address",
          "type": "address"
        }
      ],
      "name": "AdminRemoved",
      "type": "event"
    },
    {
      "anonymous": false,
      "inputs": [
        {
          "indexed": true,
          "internalType": "address",
          "name": "_from",
          "type": "address"
        },
        {
          "indexed": true,
          "internalType": "address",
          "name": "_to",
          "type": "address"
        }
      ],
      "name": "OwnerChanged",
      "type": "event"
    },
    {
      "inputs": [
        {
          "internalType": "address",
          "name": "_newOwner",
          "type": "address"
        }
      ],
      "name": "changeOwner",
      "outputs": [
        {
          "internalType": "bool",
          "name": "",
          "type": "bool"
        }
      ],
      "stateMutability": "nonpayable",
      "type": "function"
    },
    {
      "inputs": [
        {
          "internalType": "address",
          "name": "_admin",
          "type": "address"
        }
      ],
      "name": "addAdmin",
      "outputs": [
        {
          "internalType": "bool",
          "name": "",
          "type": "bool"
        }
      ],
      "stateMutability": "nonpayable",
      "type": "function"
    },
    {
      "inputs": [
        {
          "internalType": "address",
          "name": "_admin",
          "type": "address"
        }
      ],
      "name": "removeAdmin",
      "outputs": [
        {
          "internalType": "bool",
          "name": "",
          "type": "bool"
        }
      ],
      "stateMutability": "nonpayable",
      "type": "function"
    }
  ],
  "bytecode": "0x6080604052348015600f57600080fd5b5060008054600160a060020a0319163390811782558152600160208190526040909120805460ff191690911790556104d48061004c6000396000f3fe608060405234801561001057600080fd5b506004361061005d577c010000000000000000000000000000000000000000000000000000000060003504631785f53c81146100625780637048027514610089578063a6f9dae11461009c575b600080fd5b610075610070366004610437565b6100af565b604051901515815260200160405180910390f35b610075610097366004610437565b61022c565b6100756100aa366004610437565b61031a565b60008054600160a060020a031633146100e65760405160e560020a62461bcd0281526004016100dd90610467565b60405180910390fd5b600160a060020a03821660009081526001602081905260409091205460ff161515146101575760405160e560020a62461bcd02815260206004820152601960248201527f596f7520617265206e6f742061646d696e20616c72656164790000000000000060448201526064016100dd565b600054600160a060020a03908116908316036101de5760405160e560020a62461bcd02815260206004820152602360248201527f4f776e65722063616e6e6f742062652072656d6f76656420617320616e20616460448201527f6d696e000000000000000000000000000000000000000000000000000000000060648201526084016100dd565b600160a060020a038216600081815260016020526040808220805460ff19169055517fa3b62bc36326052d97ea62d63c3d60308ed4c3ea8ac079dd8499f1e9c4f80c0f9190a2506001919050565b60008054600160a060020a0316331461025a5760405160e560020a62461bcd0281526004016100dd90610467565b600160a060020a03821660009081526001602052604090205460ff16156102c65760405160e560020a62461bcd02815260206004820152601860248201527f596f752061726520616c726561647920616e2061646d696e000000000000000060448201526064016100dd565b600160a060020a0382166000818152600160208190526040808320805460ff1916909217909155517f44d6d25963f097ad14f29f06854a01f575648a1ef82f30e562ccd3889717e3399190a2506001919050565b60008054600160a060020a031633146103485760405160e560020a62461bcd0281526004016100dd90610467565b600054600160a060020a03908116908316036103a95760405160e560020a62461bcd02815260206004820152601960248201527f596f752061726520746865206f776e657220616c72656164790000000000000060448201526064016100dd565b60008054600160a060020a039081168252600160208190526040808420805460ff19908116909155845473ffffffffffffffffffffffffffffffffffffffff19168785169081178655855281852080549091169092179091558254905191169133917fb532073b38c83145e3e5135377a08bf9aab55bc0fd7c1179cd4fb995d2a5159c9190a3506001919050565b60006020828403121561044957600080fd5b8135600160a060020a038116811461046057600080fd5b9392505050565b6020808252600a908201527f4f6e6c79206f776e65720000000000000000000000000000000000000000000060408201526060019056fea26469706673582212201db474656a0a3f9c80aec6267174a175addee52af72c99ee6bd4be7119cd2b7c64736f6c63430008190033",
  "immutableReferences": {},
  "source": "// SPDX-License-Identifier: MIT\npragma solidity >=0.4.22 <0.9.0;\n\ncontract Ownable {\n    event OwnerChanged(address indexed _from, address indexed _to);\n    event AdminAdded(address indexed Admin_Address);\n    event AdminRemoved(address indexed Admin_Address);\n\n    address internal owner;\n    mapping(address => bool) internal admin;\n\n    constructor() {\n        owner = msg.sender;\n        admin[msg.sender] = true;\n    }\n\n    function changeOwner(address _newOwner) public onlyOwner returns (bool) {\n        require(_newOwner != owner, \"You are the owner already\");\n        admin[owner] = false;\n        owner = _newOwner;\n        admin[owner] = true;\n        emit OwnerChanged(msg.sender, owner);\n        return true;\n    }\n\n    function addAdmin(address _admin) public onlyOwner returns (bool) {\n        require(admin[_admin] == false, \"You are already an admin\");\n        admin[_admin] = true;\n        emit AdminAdded(_admin);\n        return true;\n    }\n\n    function removeAdmin(address _admin) public onlyOwner returns (bool) {\n        require(admin[_admin] == true, \"You are not admin already\");\n        require(_admin != owner, \"Owner cannot be removed as an admin\");\n        admin[_admin] = false;\n        emit AdminRemoved(_admin);\n        return true;\n    }\n\n    modifier onlyOwner() {\n        require(msg.sender == owner, \"Only owner\");\n        _;\n    }\n\n    modifier onlyAdmin() {\n        require(admin[msg.sender] == true, \"Only Admin\");\n        _;\n    }\n}",
  "sourcePath": "E:\\7sem proj\\DecentraMed\\contracts\\Ownable.sol",
  "compiler": {
    "name": "solc",
    "version": "0.8.25+commit.b61c2a91.Emscripten.clang"
  },
  "schemaVersion": "3.4.16",
  "updatedAt": "2024-03-27T03:42:24.986Z",
  "networkType": "ethereum",
  "devdoc": {
    "kind": "dev",
    "methods": {},
    "version": 1
  },
  "userdoc": {
    "kind": "user",
    "methods": {},
    "version": 1
  }
}